:020000020000FC
:1000000044C0189518951895189518951895189531
:10001000189509C01895189519C018951895189530
:100020001895189518952A9509F0189503E015B3B9
:10003000102715BB22E302E810E000936000109344
:1000400061001AB100E2100F1AB918950FB70F939B
:10005000EF93FF93E0916000F091610005910CB97E
:100060000A3049F0E0936000F0936100FF91EF9156
:100070000F910FBF18951AB100E2009510231AB91D
:10008000F5CF48454C4C4F0D0A000FE50DBF04E07D
:100090000EBF03E004BBA89AA998002701E009BF9E
:1000A00004E003BF22E30CE009B906E800BD08ED57
:1000B0000AB902E810E000936000109361007894A0
:1000C000FFCF5D9BFECF0CB908950FB70F93089536
:0600D0000F910FBF08951F
:00000001FF
