:020000020000FC
:1000000029C018951895189518951895189518954C
:10001000189509C01895189513C018951895189536
:100020001895189518952A9509F0189503E015B3B9
:10003000102715BB22E3EEE4F0E008EF21D018957D
:10004000EEE4F0E004910CB900E00AB918954845D7
:100050004C4C4F000FE50DBF04E00EBF03E004BBA6
:10006000A89AA998002701E009BF04E003BF22E392
:1000700078940CE009B908E10AB906E800BDFFCFA1
:100080005D9BFECF0CB908950FB70F9308950F91A4
:040090000FBF089501
:00000001FF
