:020000020000FC
:1000000037C018951895189518951895189518953E
:10001000189509C01895189518951895189518955C
:100020001895189518950F930FB70F931F932F934B
:100030003F93009160001091610020916200309127
:1000400063000F5F1F4F2F4F3F4F009360001093CF
:10005000610020936200309363003F912F911F91C4
:100060000F910FBF0F91189548454C4C4F0D0A004A
:100070000FE50DBF04E00EBFE0E6F0E000270193BE
:10008000F430E9F7EF35D9F7EE27FF2700241124E4
:100090002224332444245524662477248824992454
:1000A000AA24BB24CC24DD24EE24FF24002711271E
:1000B000222733274427552766277727882799271C
:1000C000AA27BB27CC27DD2701EA0FBD09E00EBD1B
:1000D000F89400E00BBD0FE00ABD00E009BD00E2AE
:1000E00008BD78940EE007BB0CE009B906E800BD36
:1000F00008E00AB908E610E0009364001093650078
:0601000078940000FECF20
:00000001FF
