:020000020000FC
:1000000037C018951895189518951895189518953E
:10001000189509C01895189518951895189518955C
:100020001895189518950F930FB70F931F932F934B
:100030003F93009160001091610020916200309127
:1000400063000F5F1F4F2F4F3F4F009360001093CF
:10005000610020936200309363003F912F911F91C4
:100060000F910FBF0F91189548454C4C4F0D0A004A
:100070000FE50DBF04E00EBFE0E6F0E000270193BE
:10008000F430E9F7EF35D9F7EE27FF2700241124E4
:100090002224332444245524662477248824992454
:1000A000AA24BB24CC24DD24EE24FF24002711271E
:1000B000222733274427552766277727882799271C
:1000C000AA27BB27CC27DD27002701E009BF01E0D5
:1000D00003BF08E104BBAB9AAC980CE009B906E891
:1000E00000BD08E00AB908E610E000936400109330
:1000F000650078940091600010916100093068F10A
:100100001D3358F105B318E0102715BB05B310E1F6
:10011000102715BB0027F89400933200009360006D
:100120000093610000936200009363000F930FB788
:100130000F931F932F933F93E0916400F09165001C
:1001400005915D9BFECF0CB90A30D1F73F912F91FD
:0C0150001F910F910FBF0F917894CCCF3E
:00000001FF
